:4000000080673030303030307e3030307e3030307e3030307e3030307e3030307e3030307e3030307e3030307e3030307e3030307e3030307e3030307e3030307e303030f5
:4000400030303030303030303030303030303030303030303030303030303030303030307e3030307d02d57e711062e38770ef62e33841fefb500f4e62e33855f80055f978
:4000800000711062e00270ef62e338627105627505627905627d057c026b500055030f3c030fa0053f038ff8500157a65503003c0300a00b08283f03187509008ff2711031
:4000c00070ef62e000711062e00070ef62e2007c05328fff50107f303030303030303030303030303030303030303030303030303030303030303030303030303030303029
:4001000030303030303030303030303030303030303030303030303030303030303030303030303030303030303030303030303030303030303030303030303030303030bf
:4001400030303030303030303030303030303030416e6472656173006028660063056500e600e700d600b000b100b200b333b433b500b600b855b900ba10bb33bc33bd00ee
:40018000be00ff61006900600062006733683363006600d100d300d000d200e1ffe200dfffde02dd00ff70ef62000071106200006201ff70ef6203ff620200711062020044
:4001c00062030070ef62010062040071106204016205fc70ef6207fc620600711062060062070070ef620500620800711062087f62098070ef620b80620a007110620a007f
:40020000620b0070ef620900620c007110620c00620d0070ef620f00620e007110620e00620f0070ef620d00621000711062100062110070ef621300621200711062120036
:4002400062130070ef621100621400711062140062150070ef621700621600711062160062170070ef62150070ef7f550b00550c00550d7f550e807c027e7c01a67f10703a
:40028000ef500067500157587c0299500167500157837c029970ef207f380210084f56fc00d00456fc01182070ef62e30010082839ffa01f4f48fc01a003711054fd18201b
:4002c0007509001008284f59fd610018207509008fd738fc7f2e04014706ffa0037a064705ffa0037a05760ad00b7609d0077608d00376077e43e0407f41e0bf7f5000537b
:400300000453055306530a5309530853077f7f21184f0871105de021e72b0060e070ef187f5504004704ffaffc55040078bff67f4b2101b0064706ffbffc4b53067f510aea
:400340007f53057f51057f41e0bf510a580943e0407f41e0bf08510754005108540151095402510a54031843e0407f5001800350002900a0062e0b018004260bfe510b609a
:40038000047f360b01510b60047f510b2101a00350017f081028b00420187f903c201875dff2748fef303132333435363738394142434445460867676767210fffe790195c
:4003c00018210fffe090127f4b9fea5b9fe77f5200a0069004758ff87f905f0867676767210f903818210f40404090307f904b0867676767210f900918210f4040409001c7
:400400007f08260c80510c600818210f29102a0c6008530c40218f530c60087f08260c802e0c20510c600818210f29302a0c6008530c4021af530c60087f08260c80510c26
:400440006008260df0510d7110600870ef2e0c40510c6008401057ff2e0c50510c600840405d0808260cc0510c60084040402e0c50510c60084040260cc0510c60081821f4
:4004800008a00479bfd3202e0d7f510d7110600870ef187f260d802e0d7f260e80510d71106008510e600970ef50fa906350fa905f50039f4c5052905750039f44905f90ed
:4004c0005d905b50039f3a505a904550029f32505a903d50089f16505a903550019f0e505a902d50069f06500e9f02502c9efe50089efa500c9ef650039ef2505a90117fef
:4005000080c094d4210310fff74f03ff209ede7f900c78bffc7f08193a7c010101010871105de070ef21073905d006ffe978bffe187f104f380a5502505503015a0106013c
:4005400002105500005103580208283f011875090076003c0008bff220560100560000906a1050017c0371570550007c0504205a020602021051030851025c187c03cf2085
:4005800080435d045303470302a0193d0000b006560001770110570050207c03307c03822080045600003d0000b0081050017c03712010570650017c0504205201105700f6
:4005c0007c03c8208fbd38f6208fff107c036f207101107c02fd50087c030f7c02f57c0494207f3030303030303030303030303030303030303030303030303030303030d5
:4006000030303030303030303030303030303030303030303030303030303030303030303030303030303030303030303030303030303030303030303030303030303030ba
:40064000303030303030303030303030303030303030303030303030303030303030303030303030303030303030303030303030303030303030303030303030303030307a
:40068000303030303030303030303030303030303030303030303030303030303030303030303030303030303030303030303030303030303030303030303030303030303a
:4006c00030303030303030303030303030303030303030303030303030303030303030303030303030303030303030303030303030303030303030303030303030303030fa
:020000040010ea
:020000040020da
:020000009b5e05
:00000001ff
